{
  "_format": "hh-sol-artifact-1",
  "contractName": "PolypToken",
  "sourceName": "contracts/PolypToken.sol",
  "abi": [
    {
      "inputs": [
        {
          "internalType": "address",
          "name": "initialHolder",
          "type": "address"
        }
      ],
      "stateMutability": "nonpayable",
      "type": "constructor"
    },
    {
      "inputs": [
        {
          "internalType": "address",
          "name": "spender",
          "type": "address"
        },
        {
          "internalType": "uint256",
          "name": "allowance",
          "type": "uint256"
        },
        {
          "internalType": "uint256",
          "name": "needed",
          "type": "uint256"
        }
      ],
      "name": "ERC20InsufficientAllowance",
      "type": "error"
    },
    {
      "inputs": [
        {
          "internalType": "address",
          "name": "sender",
          "type": "address"
        },
        {
          "internalType": "uint256",
          "name": "balance",
          "type": "uint256"
        },
        {
          "internalType": "uint256",
          "name": "needed",
          "type": "uint256"
        }
      ],
      "name": "ERC20InsufficientBalance",
      "type": "error"
    },
    {
      "inputs": [
        {
          "internalType": "address",
          "name": "approver",
          "type": "address"
        }
      ],
      "name": "ERC20InvalidApprover",
      "type": "error"
    },
    {
      "inputs": [
        {
          "internalType": "address",
          "name": "receiver",
          "type": "address"
        }
      ],
      "name": "ERC20InvalidReceiver",
      "type": "error"
    },
    {
      "inputs": [
        {
          "internalType": "address",
          "name": "sender",
          "type": "address"
        }
      ],
      "name": "ERC20InvalidSender",
      "type": "error"
    },
    {
      "inputs": [
        {
          "internalType": "address",
          "name": "spender",
          "type": "address"
        }
      ],
      "name": "ERC20InvalidSpender",
      "type": "error"
    },
    {
      "inputs": [],
      "name": "EnforcedPause",
      "type": "error"
    },
    {
      "inputs": [],
      "name": "ExpectedPause",
      "type": "error"
    },
    {
      "inputs": [
        {
          "internalType": "address",
          "name": "owner",
          "type": "address"
        }
      ],
      "name": "OwnableInvalidOwner",
      "type": "error"
    },
    {
      "inputs": [
        {
          "internalType": "address",
          "name": "account",
          "type": "address"
        }
      ],
      "name": "OwnableUnauthorizedAccount",
      "type": "error"
    },
    {
      "anonymous": false,
      "inputs": [
        {
          "indexed": true,
          "internalType": "address",
          "name": "owner",
          "type": "address"
        },
        {
          "indexed": true,
          "internalType": "address",
          "name": "spender",
          "type": "address"
        },
        {
          "indexed": false,
          "internalType": "uint256",
          "name": "value",
          "type": "uint256"
        }
      ],
      "name": "Approval",
      "type": "event"
    },
    {
      "anonymous": false,
      "inputs": [
        {
          "indexed": false,
          "internalType": "uint256",
          "name": "newCooldown",
          "type": "uint256"
        }
      ],
      "name": "CooldownUpdated",
      "type": "event"
    },
    {
      "anonymous": false,
      "inputs": [
        {
          "indexed": true,
          "internalType": "address",
          "name": "previousOwner",
          "type": "address"
        },
        {
          "indexed": true,
          "internalType": "address",
          "name": "newOwner",
          "type": "address"
        }
      ],
      "name": "OwnershipTransferred",
      "type": "event"
    },
    {
      "anonymous": false,
      "inputs": [
        {
          "indexed": false,
          "internalType": "address",
          "name": "account",
          "type": "address"
        }
      ],
      "name": "Paused",
      "type": "event"
    },
    {
      "anonymous": false,
      "inputs": [
        {
          "indexed": true,
          "internalType": "address",
          "name": "to",
          "type": "address"
        },
        {
          "indexed": false,
          "internalType": "uint256",
          "name": "amount",
          "type": "uint256"
        }
      ],
      "name": "TokensMinted",
      "type": "event"
    },
    {
      "anonymous": false,
      "inputs": [
        {
          "indexed": true,
          "internalType": "address",
          "name": "to",
          "type": "address"
        },
        {
          "indexed": false,
          "internalType": "uint256",
          "name": "amount",
          "type": "uint256"
        },
        {
          "indexed": false,
          "internalType": "uint256",
          "name": "timestamp",
          "type": "uint256"
        }
      ],
      "name": "TrancheUnlocked",
      "type": "event"
    },
    {
      "anonymous": false,
      "inputs": [
        {
          "indexed": true,
          "internalType": "address",
          "name": "from",
          "type": "address"
        },
        {
          "indexed": true,
          "internalType": "address",
          "name": "to",
          "type": "address"
        },
        {
          "indexed": false,
          "internalType": "uint256",
          "name": "value",
          "type": "uint256"
        }
      ],
      "name": "Transfer",
      "type": "event"
    },
    {
      "anonymous": false,
      "inputs": [
        {
          "indexed": false,
          "internalType": "address",
          "name": "account",
          "type": "address"
        }
      ],
      "name": "Unpaused",
      "type": "event"
    },
    {
      "inputs": [],
      "name": "INITIAL_SUPPLY",
      "outputs": [
        {
          "internalType": "uint256",
          "name": "",
          "type": "uint256"
        }
      ],
      "stateMutability": "view",
      "type": "function"
    },
    {
      "inputs": [],
      "name": "MAX_SUPPLY",
      "outputs": [
        {
          "internalType": "uint256",
          "name": "",
          "type": "uint256"
        }
      ],
      "stateMutability": "view",
      "type": "function"
    },
    {
      "inputs": [],
      "name": "TRANCHE_SIZE",
      "outputs": [
        {
          "internalType": "uint256",
          "name": "",
          "type": "uint256"
        }
      ],
      "stateMutability": "view",
      "type": "function"
    },
    {
      "inputs": [
        {
          "internalType": "address",
          "name": "owner",
          "type": "address"
        },
        {
          "internalType": "address",
          "name": "spender",
          "type": "address"
        }
      ],
      "name": "allowance",
      "outputs": [
        {
          "internalType": "uint256",
          "name": "",
          "type": "uint256"
        }
      ],
      "stateMutability": "view",
      "type": "function"
    },
    {
      "inputs": [
        {
          "internalType": "address",
          "name": "spender",
          "type": "address"
        },
        {
          "internalType": "uint256",
          "name": "value",
          "type": "uint256"
        }
      ],
      "name": "approve",
      "outputs": [
        {
          "internalType": "bool",
          "name": "",
          "type": "bool"
        }
      ],
      "stateMutability": "nonpayable",
      "type": "function"
    },
    {
      "inputs": [
        {
          "internalType": "address",
          "name": "account",
          "type": "address"
        }
      ],
      "name": "balanceOf",
      "outputs": [
        {
          "internalType": "uint256",
          "name": "",
          "type": "uint256"
        }
      ],
      "stateMutability": "view",
      "type": "function"
    },
    {
      "inputs": [],
      "name": "decimals",
      "outputs": [
        {
          "internalType": "uint8",
          "name": "",
          "type": "uint8"
        }
      ],
      "stateMutability": "view",
      "type": "function"
    },
    {
      "inputs": [],
      "name": "lastUnlockTime",
      "outputs": [
        {
          "internalType": "uint256",
          "name": "",
          "type": "uint256"
        }
      ],
      "stateMutability": "view",
      "type": "function"
    },
    {
      "inputs": [
        {
          "internalType": "address",
          "name": "to",
          "type": "address"
        },
        {
          "internalType": "uint256",
          "name": "amount",
          "type": "uint256"
        }
      ],
      "name": "mint",
      "outputs": [],
      "stateMutability": "nonpayable",
      "type": "function"
    },
    {
      "inputs": [],
      "name": "name",
      "outputs": [
        {
          "internalType": "string",
          "name": "",
          "type": "string"
        }
      ],
      "stateMutability": "view",
      "type": "function"
    },
    {
      "inputs": [],
      "name": "owner",
      "outputs": [
        {
          "internalType": "address",
          "name": "",
          "type": "address"
        }
      ],
      "stateMutability": "view",
      "type": "function"
    },
    {
      "inputs": [],
      "name": "pause",
      "outputs": [],
      "stateMutability": "nonpayable",
      "type": "function"
    },
    {
      "inputs": [],
      "name": "paused",
      "outputs": [
        {
          "internalType": "bool",
          "name": "",
          "type": "bool"
        }
      ],
      "stateMutability": "view",
      "type": "function"
    },
    {
      "inputs": [],
      "name": "renounceOwnership",
      "outputs": [],
      "stateMutability": "nonpayable",
      "type": "function"
    },
    {
      "inputs": [],
      "name": "symbol",
      "outputs": [
        {
          "internalType": "string",
          "name": "",
          "type": "string"
        }
      ],
      "stateMutability": "view",
      "type": "function"
    },
    {
      "inputs": [],
      "name": "totalMinted",
      "outputs": [
        {
          "internalType": "uint256",
          "name": "",
          "type": "uint256"
        }
      ],
      "stateMutability": "view",
      "type": "function"
    },
    {
      "inputs": [],
      "name": "totalSupply",
      "outputs": [
        {
          "internalType": "uint256",
          "name": "",
          "type": "uint256"
        }
      ],
      "stateMutability": "view",
      "type": "function"
    },
    {
      "inputs": [],
      "name": "trancheCooldown",
      "outputs": [
        {
          "internalType": "uint256",
          "name": "",
          "type": "uint256"
        }
      ],
      "stateMutability": "view",
      "type": "function"
    },
    {
      "inputs": [
        {
          "internalType": "address",
          "name": "to",
          "type": "address"
        },
        {
          "internalType": "uint256",
          "name": "value",
          "type": "uint256"
        }
      ],
      "name": "transfer",
      "outputs": [
        {
          "internalType": "bool",
          "name": "",
          "type": "bool"
        }
      ],
      "stateMutability": "nonpayable",
      "type": "function"
    },
    {
      "inputs": [
        {
          "internalType": "address",
          "name": "from",
          "type": "address"
        },
        {
          "internalType": "address",
          "name": "to",
          "type": "address"
        },
        {
          "internalType": "uint256",
          "name": "value",
          "type": "uint256"
        }
      ],
      "name": "transferFrom",
      "outputs": [
        {
          "internalType": "bool",
          "name": "",
          "type": "bool"
        }
      ],
      "stateMutability": "nonpayable",
      "type": "function"
    },
    {
      "inputs": [
        {
          "internalType": "address",
          "name": "newOwner",
          "type": "address"
        }
      ],
      "name": "transferOwnership",
      "outputs": [],
      "stateMutability": "nonpayable",
      "type": "function"
    },
    {
      "inputs": [
        {
          "internalType": "address",
          "name": "to",
          "type": "address"
        }
      ],
      "name": "unlockTranche",
      "outputs": [],
      "stateMutability": "nonpayable",
      "type": "function"
    },
    {
      "inputs": [],
      "name": "unlockedTranches",
      "outputs": [
        {
          "internalType": "uint256",
          "name": "",
          "type": "uint256"
        }
      ],
      "stateMutability": "view",
      "type": "function"
    },
    {
      "inputs": [],
      "name": "unpause",
      "outputs": [],
      "stateMutability": "nonpayable",
      "type": "function"
    },
    {
      "inputs": [
        {
          "internalType": "uint256",
          "name": "newCooldownInSeconds",
          "type": "uint256"
        }
      ],
      "name": "updateTrancheCooldown",
      "outputs": [],
      "stateMutability": "nonpayable",
      "type": "function"
    }
  ],
  "bytecode": "0x60806040526301e133806009553480156200001957600080fd5b50604051620024da380380620024da83398181016040528101906200003f919062000663565b806040518060400160405280600681526020017f506f6c79702400000000000000000000000000000000000000000000000000008152506040518060400160405280600581526020017f504f4c59500000000000000000000000000000000000000000000000000000008152508160039081620000bd91906200090f565b508060049081620000cf91906200090f565b505050600073ffffffffffffffffffffffffffffffffffffffff168173ffffffffffffffffffffffffffffffffffffffff1603620001475760006040517f1e4fbdf70000000000000000000000000000000000000000000000000000000081526004016200013e919062000a07565b60405180910390fd5b6200015881620001ed60201b60201c565b5062000177816b06765c793fa10079d0000000620002b360201b60201c565b6b06765c793fa10079d00000006006819055508073ffffffffffffffffffffffffffffffffffffffff167f3f2c9d57c068687834f0de942a9babb9e5acab57d516d3480a3c16ee165a42736b06765c793fa10079d0000000604051620001de919062000a35565b60405180910390a25062000af9565b6000600560019054906101000a900473ffffffffffffffffffffffffffffffffffffffff16905081600560016101000a81548173ffffffffffffffffffffffffffffffffffffffff021916908373ffffffffffffffffffffffffffffffffffffffff1602179055508173ffffffffffffffffffffffffffffffffffffffff168173ffffffffffffffffffffffffffffffffffffffff167f8be0079c531659141344cd1fd0a4f28419497f9722a3daafe3b4186f6b6457e060405160405180910390a35050565b600073ffffffffffffffffffffffffffffffffffffffff168273ffffffffffffffffffffffffffffffffffffffff1603620003285760006040517fec442f050000000000000000000000000000000000000000000000000000000081526004016200031f919062000a07565b60405180910390fd5b6200033c600083836200034060201b60201c565b5050565b620003506200036860201b60201c565b62000363838383620003b260201b60201c565b505050565b62000378620005e260201b60201c565b15620003b0576040517fd93c066500000000000000000000000000000000000000000000000000000000815260040160405180910390fd5b565b600073ffffffffffffffffffffffffffffffffffffffff168373ffffffffffffffffffffffffffffffffffffffff160362000408578060026000828254620003fb919062000a81565b92505081905550620004de565b60008060008573ffffffffffffffffffffffffffffffffffffffff1673ffffffffffffffffffffffffffffffffffffffff1681526020019081526020016000205490508181101562000497578381836040517fe450d38c0000000000000000000000000000000000000000000000000000000081526004016200048e9392919062000abc565b60405180910390fd5b8181036000808673ffffffffffffffffffffffffffffffffffffffff1673ffffffffffffffffffffffffffffffffffffffff16815260200190815260200160002081905550505b600073ffffffffffffffffffffffffffffffffffffffff168273ffffffffffffffffffffffffffffffffffffffff160362000529578060026000828254039250508190555062000576565b806000808473ffffffffffffffffffffffffffffffffffffffff1673ffffffffffffffffffffffffffffffffffffffff168152602001908152602001600020600082825401925050819055505b8173ffffffffffffffffffffffffffffffffffffffff168373ffffffffffffffffffffffffffffffffffffffff167fddf252ad1be2c89b69c2b068fc378daa952ba7f163c4a11628f55a4df523b3ef83604051620005d5919062000a35565b60405180910390a3505050565b6000600560009054906101000a900460ff16905090565b600080fd5b600073ffffffffffffffffffffffffffffffffffffffff82169050919050565b60006200062b82620005fe565b9050919050565b6200063d816200061e565b81146200064957600080fd5b50565b6000815190506200065d8162000632565b92915050565b6000602082840312156200067c576200067b620005f9565b5b60006200068c848285016200064c565b91505092915050565b600081519050919050565b7f4e487b7100000000000000000000000000000000000000000000000000000000600052604160045260246000fd5b7f4e487b7100000000000000000000000000000000000000000000000000000000600052602260045260246000fd5b600060028204905060018216806200071757607f821691505b6020821081036200072d576200072c620006cf565b5b50919050565b60008190508160005260206000209050919050565b60006020601f8301049050919050565b600082821b905092915050565b600060088302620007977fffffffffffffffffffffffffffffffffffffffffffffffffffffffffffffffff8262000758565b620007a3868362000758565b95508019841693508086168417925050509392505050565b6000819050919050565b6000819050919050565b6000620007f0620007ea620007e484620007bb565b620007c5565b620007bb565b9050919050565b6000819050919050565b6200080c83620007cf565b620008246200081b82620007f7565b84845462000765565b825550505050565b600090565b6200083b6200082c565b6200084881848462000801565b505050565b5b8181101562000870576200086460008262000831565b6001810190506200084e565b5050565b601f821115620008bf57620008898162000733565b620008948462000748565b81016020851015620008a4578190505b620008bc620008b38562000748565b8301826200084d565b50505b505050565b600082821c905092915050565b6000620008e460001984600802620008c4565b1980831691505092915050565b6000620008ff8383620008d1565b9150826002028217905092915050565b6200091a8262000695565b67ffffffffffffffff811115620009365762000935620006a0565b5b620009428254620006fe565b6200094f82828562000874565b600060209050601f83116001811462000987576000841562000972578287015190505b6200097e8582620008f1565b865550620009ee565b601f198416620009978662000733565b60005b82811015620009c1578489015182556001820191506020850194506020810190506200099a565b86831015620009e15784890151620009dd601f891682620008d1565b8355505b6001600288020188555050505b505050505050565b62000a01816200061e565b82525050565b600060208201905062000a1e6000830184620009f6565b92915050565b62000a2f81620007bb565b82525050565b600060208201905062000a4c600083018462000a24565b92915050565b7f4e487b7100000000000000000000000000000000000000000000000000000000600052601160045260246000fd5b600062000a8e82620007bb565b915062000a9b83620007bb565b925082820190508082111562000ab65762000ab562000a52565b5b92915050565b600060608201905062000ad36000830186620009f6565b62000ae2602083018562000a24565b62000af1604083018462000a24565b949350505050565b6119d18062000b096000396000f3fe608060405234801561001057600080fd5b50600436106101735760003560e01c80636cfe3dda116100de578063a2309ff811610097578063b95cb80d11610071578063b95cb80d146103f4578063dd62ed3e14610412578063f2752d8014610442578063f2fde38b1461046057610173565b8063a2309ff814610388578063a5c38b3d146103a6578063a9059cbb146103c457610173565b80636cfe3dda146102ec57806370a0823114610308578063715018a6146103385780638456cb59146103425780638da5cb5b1461034c57806395d89b411461036a57610173565b8063313ce56711610130578063313ce5671461025057806332cb6b0c1461026e5780633f4ba83a1461028c57806340c10f19146102965780635c975abb146102b25780635cb38b97146102d057610173565b806306fdde0314610178578063095ea7b31461019657806318160ddd146101c65780631bf69b45146101e457806323b872dd146102025780632ff2e9dc14610232575b600080fd5b61018061047c565b60405161018d919061143f565b60405180910390f35b6101b060048036038101906101ab91906114fa565b61050e565b6040516101bd9190611555565b60405180910390f35b6101ce610531565b6040516101db919061157f565b60405180910390f35b6101ec61053b565b6040516101f9919061157f565b60405180910390f35b61021c6004803603810190610217919061159a565b610541565b6040516102299190611555565b60405180910390f35b61023a610570565b604051610247919061157f565b60405180910390f35b610258610580565b6040516102659190611609565b60405180910390f35b610276610589565b604051610283919061157f565b60405180910390f35b610294610599565b005b6102b060048036038101906102ab91906114fa565b6105ab565b005b6102ba610689565b6040516102c79190611555565b60405180910390f35b6102ea60048036038101906102e59190611624565b6106a0565b005b61030660048036038101906103019190611651565b6106e9565b005b610322600480360381019061031d9190611651565b610866565b60405161032f919061157f565b60405180910390f35b6103406108ae565b005b61034a6108c2565b005b6103546108d4565b604051610361919061168d565b60405180910390f35b6103726108fe565b60405161037f919061143f565b60405180910390f35b610390610990565b60405161039d919061157f565b60405180910390f35b6103ae610996565b6040516103bb919061157f565b60405180910390f35b6103de60048036038101906103d991906114fa565b61099c565b6040516103eb9190611555565b60405180910390f35b6103fc6109bf565b604051610409919061157f565b60405180910390f35b61042c600480360381019061042791906116a8565b6109c5565b604051610439919061157f565b60405180910390f35b61044a610a4c565b604051610457919061157f565b60405180910390f35b61047a60048036038101906104759190611651565b610a5c565b005b60606003805461048b90611717565b80601f01602080910402602001604051908101604052809291908181526020018280546104b790611717565b80156105045780601f106104d957610100808354040283529160200191610504565b820191906000526020600020905b8154815290600101906020018083116104e757829003601f168201915b5050505050905090565b600080610519610ae2565b9050610526818585610aea565b600191505092915050565b6000600254905090565b60095481565b60008061054c610ae2565b9050610559858285610afc565b610564858585610b91565b60019150509392505050565b6b06765c793fa10079d000000081565b60006012905090565b6b204fce5e3e2502611000000081565b6105a1610c85565b6105a9610d0c565b565b6105b3610c85565b6b204fce5e3e25026110000000816105c9610531565b6105d39190611777565b1115610614576040517f08c379a000000000000000000000000000000000000000000000000000000000815260040161060b9061181d565b60405180910390fd5b61061e8282610d6f565b80600660008282546106309190611777565b925050819055508173ffffffffffffffffffffffffffffffffffffffff167f3f2c9d57c068687834f0de942a9babb9e5acab57d516d3480a3c16ee165a42738260405161067d919061157f565b60405180910390a25050565b6000600560009054906101000a900460ff16905090565b6106a8610c85565b806009819055507f583d8b24c5439ab7d810e51e37e8db41ba66f1168fd7b752ceae0c7681c5272c816040516106de919061157f565b60405180910390a150565b6106f1610c85565b6009546008546107019190611777565b421015610743576040517f08c379a000000000000000000000000000000000000000000000000000000000815260040161073a906118af565b60405180910390fd5b6b204fce5e3e250261100000006b019d971e4fe8401e7400000060065461076a9190611777565b11156107ab576040517f08c379a00000000000000000000000000000000000000000000000000000000081526004016107a29061191b565b60405180910390fd5b6107c1816b019d971e4fe8401e74000000610d6f565b6b019d971e4fe8401e74000000600660008282546107df9190611777565b925050819055506001600760008282546107f99190611777565b92505081905550426008819055508073ffffffffffffffffffffffffffffffffffffffff167fd162c07f978b9dc2a27709f1e4817828aace547df6811a9c8f12423cdcf0dd5c6b019d971e4fe8401e740000004260405161085b92919061193b565b60405180910390a250565b60008060008373ffffffffffffffffffffffffffffffffffffffff1673ffffffffffffffffffffffffffffffffffffffff168152602001908152602001600020549050919050565b6108b6610c85565b6108c06000610df1565b565b6108ca610c85565b6108d2610eb7565b565b6000600560019054906101000a900473ffffffffffffffffffffffffffffffffffffffff16905090565b60606004805461090d90611717565b80601f016020809104026020016040519081016040528092919081815260200182805461093990611717565b80156109865780601f1061095b57610100808354040283529160200191610986565b820191906000526020600020905b81548152906001019060200180831161096957829003601f168201915b5050505050905090565b60065481565b60085481565b6000806109a7610ae2565b90506109b4818585610b91565b600191505092915050565b60075481565b6000600160008473ffffffffffffffffffffffffffffffffffffffff1673ffffffffffffffffffffffffffffffffffffffff16815260200190815260200160002060008373ffffffffffffffffffffffffffffffffffffffff1673ffffffffffffffffffffffffffffffffffffffff16815260200190815260200160002054905092915050565b6b019d971e4fe8401e7400000081565b610a64610c85565b600073ffffffffffffffffffffffffffffffffffffffff168173ffffffffffffffffffffffffffffffffffffffff1603610ad65760006040517f1e4fbdf7000000000000000000000000000000000000000000000000000000008152600401610acd919061168d565b60405180910390fd5b610adf81610df1565b50565b600033905090565b610af78383836001610f1a565b505050565b6000610b0884846109c5565b90507fffffffffffffffffffffffffffffffffffffffffffffffffffffffffffffffff811015610b8b5781811015610b7b578281836040517ffb8f41b2000000000000000000000000000000000000000000000000000000008152600401610b7293929190611964565b60405180910390fd5b610b8a84848484036000610f1a565b5b50505050565b600073ffffffffffffffffffffffffffffffffffffffff168373ffffffffffffffffffffffffffffffffffffffff1603610c035760006040517f96c6fd1e000000000000000000000000000000000000000000000000000000008152600401610bfa919061168d565b60405180910390fd5b600073ffffffffffffffffffffffffffffffffffffffff168273ffffffffffffffffffffffffffffffffffffffff1603610c755760006040517fec442f05000000000000000000000000000000000000000000000000000000008152600401610c6c919061168d565b60405180910390fd5b610c808383836110f1565b505050565b610c8d610ae2565b73ffffffffffffffffffffffffffffffffffffffff16610cab6108d4565b73ffffffffffffffffffffffffffffffffffffffff1614610d0a57610cce610ae2565b6040517f118cdaa7000000000000000000000000000000000000000000000000000000008152600401610d01919061168d565b60405180910390fd5b565b610d14611109565b6000600560006101000a81548160ff0219169083151502179055507f5db9ee0a495bf2e6ff9c91a7834c1ba4fdd244a5e8aa4e537bd38aeae4b073aa610d58610ae2565b604051610d65919061168d565b60405180910390a1565b600073ffffffffffffffffffffffffffffffffffffffff168273ffffffffffffffffffffffffffffffffffffffff1603610de15760006040517fec442f05000000000000000000000000000000000000000000000000000000008152600401610dd8919061168d565b60405180910390fd5b610ded600083836110f1565b5050565b6000600560019054906101000a900473ffffffffffffffffffffffffffffffffffffffff16905081600560016101000a81548173ffffffffffffffffffffffffffffffffffffffff021916908373ffffffffffffffffffffffffffffffffffffffff1602179055508173ffffffffffffffffffffffffffffffffffffffff168173ffffffffffffffffffffffffffffffffffffffff167f8be0079c531659141344cd1fd0a4f28419497f9722a3daafe3b4186f6b6457e060405160405180910390a35050565b610ebf611149565b6001600560006101000a81548160ff0219169083151502179055507f62e78cea01bee320cd4e420270b5ea74000d11b0c9f74754ebdbfc544b05a258610f03610ae2565b604051610f10919061168d565b60405180910390a1565b600073ffffffffffffffffffffffffffffffffffffffff168473ffffffffffffffffffffffffffffffffffffffff1603610f8c5760006040517fe602df05000000000000000000000000000000000000000000000000000000008152600401610f83919061168d565b60405180910390fd5b600073ffffffffffffffffffffffffffffffffffffffff168373ffffffffffffffffffffffffffffffffffffffff1603610ffe5760006040517f94280d62000000000000000000000000000000000000000000000000000000008152600401610ff5919061168d565b60405180910390fd5b81600160008673ffffffffffffffffffffffffffffffffffffffff1673ffffffffffffffffffffffffffffffffffffffff16815260200190815260200160002060008573ffffffffffffffffffffffffffffffffffffffff1673ffffffffffffffffffffffffffffffffffffffff1681526020019081526020016000208190555080156110eb578273ffffffffffffffffffffffffffffffffffffffff168473ffffffffffffffffffffffffffffffffffffffff167f8c5be1e5ebec7d5bd14f71427d1e84f3dd0314c0f7b2291e5b200ac8c7c3b925846040516110e2919061157f565b60405180910390a35b50505050565b6110f9611149565b61110483838361118a565b505050565b611111610689565b611147576040517f8dfc202b00000000000000000000000000000000000000000000000000000000815260040160405180910390fd5b565b611151610689565b15611188576040517fd93c066500000000000000000000000000000000000000000000000000000000815260040160405180910390fd5b565b600073ffffffffffffffffffffffffffffffffffffffff168373ffffffffffffffffffffffffffffffffffffffff16036111dc5780600260008282546111d09190611777565b925050819055506112af565b60008060008573ffffffffffffffffffffffffffffffffffffffff1673ffffffffffffffffffffffffffffffffffffffff16815260200190815260200160002054905081811015611268578381836040517fe450d38c00000000000000000000000000000000000000000000000000000000815260040161125f93929190611964565b60405180910390fd5b8181036000808673ffffffffffffffffffffffffffffffffffffffff1673ffffffffffffffffffffffffffffffffffffffff16815260200190815260200160002081905550505b600073ffffffffffffffffffffffffffffffffffffffff168273ffffffffffffffffffffffffffffffffffffffff16036112f85780600260008282540392505081905550611345565b806000808473ffffffffffffffffffffffffffffffffffffffff1673ffffffffffffffffffffffffffffffffffffffff168152602001908152602001600020600082825401925050819055505b8173ffffffffffffffffffffffffffffffffffffffff168373ffffffffffffffffffffffffffffffffffffffff167fddf252ad1be2c89b69c2b068fc378daa952ba7f163c4a11628f55a4df523b3ef836040516113a2919061157f565b60405180910390a3505050565b600081519050919050565b600082825260208201905092915050565b60005b838110156113e95780820151818401526020810190506113ce565b60008484015250505050565b6000601f19601f8301169050919050565b6000611411826113af565b61141b81856113ba565b935061142b8185602086016113cb565b611434816113f5565b840191505092915050565b600060208201905081810360008301526114598184611406565b905092915050565b600080fd5b600073ffffffffffffffffffffffffffffffffffffffff82169050919050565b600061149182611466565b9050919050565b6114a181611486565b81146114ac57600080fd5b50565b6000813590506114be81611498565b92915050565b6000819050919050565b6114d7816114c4565b81146114e257600080fd5b50565b6000813590506114f4816114ce565b92915050565b6000806040838503121561151157611510611461565b5b600061151f858286016114af565b9250506020611530858286016114e5565b9150509250929050565b60008115159050919050565b61154f8161153a565b82525050565b600060208201905061156a6000830184611546565b92915050565b611579816114c4565b82525050565b60006020820190506115946000830184611570565b92915050565b6000806000606084860312156115b3576115b2611461565b5b60006115c1868287016114af565b93505060206115d2868287016114af565b92505060406115e3868287016114e5565b9150509250925092565b600060ff82169050919050565b611603816115ed565b82525050565b600060208201905061161e60008301846115fa565b92915050565b60006020828403121561163a57611639611461565b5b6000611648848285016114e5565b91505092915050565b60006020828403121561166757611666611461565b5b6000611675848285016114af565b91505092915050565b61168781611486565b82525050565b60006020820190506116a2600083018461167e565b92915050565b600080604083850312156116bf576116be611461565b5b60006116cd858286016114af565b92505060206116de858286016114af565b9150509250929050565b7f4e487b7100000000000000000000000000000000000000000000000000000000600052602260045260246000fd5b6000600282049050600182168061172f57607f821691505b602082108103611742576117416116e8565b5b50919050565b7f4e487b7100000000000000000000000000000000000000000000000000000000600052601160045260246000fd5b6000611782826114c4565b915061178d836114c4565b92508282019050808211156117a5576117a4611748565b5b92915050565b7f506f6c7970546f6b656e3a2043616e6e6f7420657863656564206d617820737560008201527f70706c7900000000000000000000000000000000000000000000000000000000602082015250565b60006118076024836113ba565b9150611812826117ab565b604082019050919050565b60006020820190508181036000830152611836816117fa565b9050919050565b7f506f6c7970546f6b656e3a205472616e63686520636f6f6c646f776e2061637460008201527f6976650000000000000000000000000000000000000000000000000000000000602082015250565b60006118996023836113ba565b91506118a48261183d565b604082019050919050565b600060208201905081810360008301526118c88161188c565b9050919050565b7f506f6c7970546f6b656e3a204d617820737570706c7920657863656564656400600082015250565b6000611905601f836113ba565b9150611910826118cf565b602082019050919050565b60006020820190508181036000830152611934816118f8565b9050919050565b60006040820190506119506000830185611570565b61195d6020830184611570565b9392505050565b6000606082019050611979600083018661167e565b6119866020830185611570565b6119936040830184611570565b94935050505056fea26469706673582212203a016769965bb567920904d4bcd40e4efc11bf5957feaad06ad02049c6f04c6964736f6c63430008140033",
  "linkReferences": {},
  "deployedLinkReferences": {}
}